:020000040800F2
:10000000A82100208D020008950200089702000830
:10001000990200089B0200089D02000800000000F1
:10002000000000000000000000000000F5010008D2
:10003000A10200080000000039020008B9310008E0
:10004000A7020008A7020008A7020008A7020008EC
:10005000A7020008A70200086D2C0008A7020008EC
:10006000A7020008A7020008A7020008A7020008CC
:10007000A7020008A7020008A7020008A7020008BC
:10008000A7020008A7020008A7020008A7020008AC
:10009000A7020008A7020008A7020008A70200089C
:1000A000A7020008A7020008A7020008A70200088C
:1000B000A7020008A7020008A7020008A70200087C
:1000C000A7020008A7020008A7020008A70200086C
:1000D000A702000805350008A7020008353500080A
:1000E000BD2C0008A7020008A702000800F002F8D3
:1000F00000F070F80AA090E8000C82448344AAF152
:100100000107DA4501D100F065F8AFF2090EBAE84F
:100110000F0013F0010F18BFFB1A43F0010318473B
:100120008C730000AC7300000A444FF0000C10F810
:10013000013B13F0070408BF10F8014B1D1108BF65
:1001400010F8015B641E05D010F8016B641E01F805
:10015000016BF9D113F0080F1EBF10F8014BAD1C55
:100160000C1B09D16D1E58BF01F801CBFAD505E073
:1001700014F8016B01F8016B6D1EF9D59142D6D3CD
:10018000704700000023002400250026103A28BFF5
:1001900078C1FBD8520728BF30C148BF0B607047F9
:1001A000662907F08D80732900F06785002070476D
:1001B0001FB501F07BF804000020002106F03AFB97
:1001C000401C60600020002106F01EFBE0601FBDA7
:1001D00010B510BD01F04EFB1146FFF7E9FF03F02B
:1001E000CDFC01F0ABFD03B4FFF7F2FF03BC01F05F
:1001F00003FE0000224B19680868B0E8F00F80F396
:100200000988BFF36F8F4FF0000080F311884EF024
:100210000D0E70470000000006480068006880F37B
:10022000088862B661B6BFF34F8FBFF36F8F00DFF0
:1002300000BF00BF08ED00E0EFF30980BFF36F8F50
:100240000F4B1A6820E9F00F106008B54FF050000E
:1002500080F31188BFF34F8FBFF36F8F05F022F942
:100260004FF0000080F31188BDE808401968086865
:10027000B0E8F00F80F30988BFF36F8F704700BFBD
:10028000F4020020EFF30580704700000948804722
:1002900009480047FEE7FEE7FEE7FEE7FEE7FEE768
:1002A000FEE7FEE7FEE7FEE704480549054A064B80
:1002B00070470000ED310008ED000008A81B002089
:1002C000A8210020A81D0020A81D00200FB41CB5E7
:1002D000074B06AA7B4469460090059800F0A3FCF2
:1002E0000020694600F0B2FC1CBC5DF814FB000065
:1002F0007509000070B50C460546012A05D028781E
:10030000800600D5EA69002302E0012305E05B1CBA
:10031000934202D2E05C0028F9D1A869E618C01A1D
:10032000A861286A184428622846AFF3008004E0D8
:10033000D5E9012114F8010B9047B442F8D32846BF
:10034000AFF3008070BD2DE9F0474FF0000A8946F9
:100350000446C0F820A02046E1688847002876D0EF
:10036000252806D0D4E901219047206A401C20624C
:10037000F1E7E168204600268847C4F81CA005463E
:100380000027C4F818A02A2D09D0284603F07FFAC8
:1003900038B304EB8708303DC8F8185019E059F815
:1003A000041B204604EB87029161E1688847012F16
:1003B000054618D1E069002820DA26F020061DE065
:1003C000D8F8180000EB800005EB40003038C8F882
:1003D00018002046E1688847054603F058FA0028CF
:1003E000EED1012F0AD02E2D08D12046E168884792
:1003F0007F1C0546022F46F02006C4DBA0690028BA
:1004000003DA404246F00106A061F00701D026F071
:1004100010066C2D0AD0682D08D04C2D39D06A2DCD
:1004200035D0742D35D07A2D33D016E0E1682F46C3
:1004300020468847B84205460AD16C2F27D04FF492
:100440008060E168064320468847054605E027E0CE
:100450006C2F1AD04FF4807006430DB3A5F1410004
:10046000192802D8203546F400664A462946204617
:1004700026604E46FFF794FE80B101280BD0F61D92
:1004800026F0070000F1080965E74020E4E7802036
:10049000D7E70020D5E706F104095CE7284661E7C5
:1004A000206ABDE8F08700000FB400B58DB010A938
:1004B000099000910B904FF0FF300A9000200C90B3
:1004C000064878440690064878446A4607900F9993
:1004D00009A800F067FE0DB05DF814FBFF0C0000EA
:1004E000170D00002DE9FF5F1D464FF0FF3B9146C1
:1004F0004FF000085F46D5E90146A96901987F1CC5
:100500008847296A824688470028F6D1BAF1FF3F1A
:100510000CD0002E24F4C06419DD600614D5BAF1A5
:100520002B0F09D0BAF12D0F0ED103E0584604B0BD
:10053000BDE8F09F44F48064A96901987F1C884756
:10054000761E8246002E02DDBAF1300F03D0B9F1DB
:10055000000F26D032E0A969761E01987F1C44F472
:1005600000748847002E824605DDBAF1780F06D068
:10057000BAF1580F03D0B9F1000F10D01EE0B9F155
:10058000000F02D0B9F1100F18D1A969761E019899
:100590007F1C24F4007488478246102002E0082063
:1005A00000E00A20814609E0A96908FB0908761ED7
:1005B00001987F1C44F4007488478246002E05DDB4
:1005C0004946504600F05DFB0028EDDAE9690198E4
:1005D0008847A00502D46FF00100A8E7E00725D105
:1005E000600613D5600502D5C8F1000000E0404662
:1005F00029680A1D2A600968220501D5087015E0DE
:10060000220701D5088011E008600FE02868011D6D
:1006100029600068210502D580F8008006E02107E6
:1006200002D5A0F8008001E0C0F8008038467EE7DF
:10063000014A00F0E7BD00004803002040EA010342
:10064000024630B59B0710D14FF0013400E008C2DC
:1006500008C91D1B9D4315EAC41FF8D013F0FF0104
:1006600002F8011B0DD01B0AF8E711F8013B002B23
:1006700002F8013B05D011F8013B002B02F8013BC9
:10068000F3D130BD032A40F2308010F0030C00F0AB
:10069000158011F8013BBCF1020F624498BF11F8BC
:1006A00001CB00F8013B38BF11F8013BA2F1040275
:1006B00098BF00F801CB38BF00F8013B11F00303ED
:1006C00000F0C285083AC0F0088051F8043B083AAF
:1006D00051F804CBA0E80810F5E7121D5CBF51F8F3
:1006E000043B40F8043BAFF30080D20724BF11F86D
:1006F000013B11F801CB48BF11F8012B24BF00F8D2
:10070000013B00F801CB48BF00F8012B70474FF0C8
:1007100000020429C0F0128010F0030C00F01B80CE
:10072000CCF1040CBCF1020F18BF00F8012BA8BFDC
:1007300020F8022BA1EB0C0100F00DB85FEAC17CA0
:1007400024BF00F8012B00F8012B48BF00F8012B53
:1007500070474FF0000200B5134694469646203984
:1007600022BFA0E80C50A0E80C50B1F12001BFF46A
:10077000F7AF090728BFA0E80C5048BF0CC05DF8D0
:1007800004EB890028BF40F8042B08BF704748BF1E
:1007900020F8022B11F0804F18BF00F8012B704792
:1007A00010B5044610F0030F08BF11F0030F40F01E
:1007B00015804FF0013E121FC0F20E8051F8043B2D
:1007C000A3EB0E0C2CEA030C1CEACE1C08BF40F86D
:1007D000043BF0D0A1F1040102F10402521E08DB37
:1007E00011F8013B002B00F8013BF7D11146FFF750
:1007F0008EFF204610BD70477047704770472DE947
:10080000FF4F0C461E464FF0FF378BB0D2E9000178
:10081000DDF860800A908A46C1F30A5505B93D4665
:10082000002108464FF00000BAF1000F00F440002C
:1008300005DA00EB80004FF4400101EA50004FEA76
:100840009059B9F1010F00DDB9460A9850EA4A0003
:100850000ED044F61050A5F2FF3545432F14B8F1E1
:10086000000F1ED07542291E1EDDC9F100021CE0DA
:10087000B8F1010F4FF0000001D0302103E0F24346
:1008800005E02154401CB042FBDB30460022002131
:1008900021540B99C1F80880C1E900200FB0BDE8D0
:1008A000F08FBD1B6D1CDEE74A4600DA694206A8E0
:1008B00000F04CFF06AB93E8070003AB83E80700AA
:1008C00050460A9901F09FFA8DE80700A0F5005004
:1008D0001F3800900398002D0ADD42F21F014A469E
:1008E0000844002303A90390684601F04BFD09E08A
:1008F000A0F500504A461F38002303A9039068461C
:1009000001F06AFD8DE807000004000C03D04FF0F1
:10091000FF30410800E01046B8F1000F03D000227C
:10092000009215461EE0751E05D400F0C7FC30325B
:1009300062556D1EF9D5B3460122084302D000224C
:100940007F1C04E02078302801D100227F1E002A7D
:10095000099784D01DE0112D07DA00F0AFFC30328A
:1009600062556D1C50EA0102F5D1084302D000988F
:10097000C8B10EE00021681E05E0235C625C635490
:100980002254401E491C8142F7DBAB46A81B401E87
:100990000990002004F80B000B98099AC0F8088011
:1009A000C0E9002B7AE711264FF0000857E72DE940
:1009B000F04F88460446D21D22F0070191B0D1E9DC
:1009C0000001CDE90A0102F0ABFE02460B98C00F10
:1009D00001D02D2007E02068810701D52B2002E0FF
:1009E000202101EAC000032A099001D0072A05DB73
:1009F00003464146204600F0AFFC0BE1207880061C
:100A000001D5E06900E00620B8F1650F814606D007
:100A1000B8F1660F18D0B8F1670F70D131E000203F
:100A2000B9F1110F009001DB112301E009F101037D
:100A30000AAA01A90CA8FFF7E2FEDDE90C70002666
:100A400009F10105834647E001204B4600904FF035
:100A500000470AAA01A90CA8FFF7D1FEDDE90DB0F5
:100A60000C995D46002610B909F101000D18B9EB8B
:100A7000050003D4C0F1FF3609F10105A5EB09001B
:100A80002BE0B9F1010F01DA4FF001090020B9F1B3
:100A9000110F0090484601DD112300E003460AAA29
:100AA00001A90CA8FFF7ABFEDDE90C704D4600264E
:100AB0008346207800070AD4AB4500DA5D4601A8DA
:100AC000012D04DD411911F8011C302907D04F45D3
:100AD00002DA17F1040F04DA012082460FE06D1EDE
:100AE000EEE7002F02DCED1B3E4403E0781CA84239
:100AF00000DD7D1CB81B00F1010A4FF00047207893
:100B0000000703D4AA4501DB4FF0FF3A0021B7F1FB
:100B1000004F0DF143088DF8431024D002202B2301
:100B2000002F01DA7F422D230A21021EA0F10100CD
:100B300000DC5FB197FBF1FC97FBF1F201FB1C7C41
:100B400017460CF1300C08F801CDEEE7A8F10100D2
:100B500003702188090501D5452100E06521A0F138
:100B6000010800F8011C09980FA9A1EB0807FF1D57
:100B700000B10120411901EBEA70A1693844081A5B
:100B8000401EA0612078C00602D42046AFF300804A
:100B9000099828B1D4E901219047206A401C2062BD
:100BA0002078C00622D52046AFF300801EE0002E3C
:100BB00004DBB34502DD01A8805D00E03020D4E90C
:100BC00001219047206A401C2062761CAAF1010096
:100BD0005FEA000A0AD100F069FBC0680168405C66
:100BE000D4E901219047206A401C2062281EA5F10B
:100BF0000105DCDC07E0D4E9012118F8010B90477E
:100C0000206A401C2062381EA7F10107F3DC204651
:100C1000AFF30080032011B041E6000001694A1CD7
:100C200002610878704700B58FB0CDE9013100212D
:100C3000059105497944CDE9031011466846FFF74F
:100C400082FB0FB000BD0000E5FFFFFF0A6802F85D
:100C5000010B0A60704710B5436913B1AFF3008010
:100C600001E0FFF747FB012010BD127800F12401DD
:100C70000A7000224A700122EDE711684FF0FF323E
:100C8000E9E73A2800D2303820F02002412A01D387
:100C9000A2F13700884201D34FF0FF3070470000C7
:100CA0002DE9FF4F06468BB00878FF2806D0491C77
:100CB0002D2805D000244FF0000908E000200CE0AA
:100CC0000124F8E709EB8903491C00EB4309087884
:100CD000FF28F7D114B1C9F1000081461078002532
:100CE0002C46AA4629462D2801D02B2804D1521C77
:100CF0002D2813D0002082468B461078FF280FD075
:100D00004FF0000C0A21521CA5FB017804FB018165
:100D100005FB0C11C5194BEB0104EEE70120EAE7D6
:100D2000002108464FF00000BAF1000F02D000EB9E
:100D300080004008C0F38157012F01DD4FF0FF37DD
:100D40000E9955EA040009EB01080BD04FF0020997
:100D500018F5FA7F16DA4FEACA70002F706008DDC6
:100D6000012007E04FEACA70C6E900B00FB0BDE845
:100D7000F08F0020306000F09DFAC0F8009018213C
:100D8000084616E0B8F5FA7F18DD002F02DAF748BA
:100D9000784401E0F6487844D0E90010C6E9001034
:100DA00040EACA70706000F085FAC0F80090142123
:100DB00008460FB0BDE8F04F06F07FBA00210846A4
:100DC0004FF00000B8F10001099002DAC7F100020B
:100DD00000E03A4601DAC8F1000106A800F0B6FCCE
:100DE00006AB93E8070003AB83E8070044F23E003C
:100DF0005BEA04010090584604D144F21E012C46DF
:100E00005D460091210C0904014306D10099240498
:100E100044EA15442D041039009104F07F41014348
:100E200006D10099240244EA15642D020839009184
:100E300004F07041014306D10099240144EA15747D
:100E40002D01091F009104F04041014306D1009992
:100E5000A40044EA9574AD00891E009104F000419D
:100E6000084304D100986D196441401E00904FF072
:100E700001033A466846B8F1000FCDE9014503A9E0
:100E800002DD01F0BEFA01E001F091FABAF1000FC3
:100E900004460D4601D084F00044002108464FF07E
:100EA0000000099940F2FF77484010F00C0F07D17D
:100EB00024F00040284303D0C4F30A50B84212D1B2
:100EC00000F0F8F9C0F80090C4F30A50B8420AD113
:100ED000A8487844D0E90010C6E9001004F00041A9
:100EE0000843706042E7C6E900543FE72DE9FF4F31
:100EF0001F464FF0000A4FF0FF38454691B0D7E942
:100F00000146CDF83CA000F0D1F9C0680168405C12
:100F10001090B96912986D1C8847396A81468847D4
:100F20000028F6D1B9F1FF3F0AD0002E24F4D06496
:100F300011DDB9F12B0F08D0B9F12D0F0BD102E063
:100F4000404615B013E744F48064B96912986D1CEB
:100F50008847761E8146600504A901D52D2000E052
:100F60002B20002E01F1010B0DF130088DF810003F
:100F70003FDDB9F1690F08D0B9F1490F05D0B9F1DA
:100F80006E0F02D0B9F14E0F1CD13B4601A800955F
:100F900080E85002DDE912126FF0020006F0F6F967
:100FA000C11CCED10EE0B96912986D1C88478146EC
:100FB0001398761E44F4007405600F98401C002EB0
:100FC0000F9016DDB9F1300FEDD0B9F1780F02D0E6
:100FD000B9F1580F0DD10F9801280AD13B46CDE940
:100FE0000054DDE91212001F029606F0CDF9C11C73
:100FF000A7D1109989453ED144F0800406E01399A9
:10100000681CAAF1010A44F400740860B9696D1CF7
:101010001298761E884730288146F0D02BE0109930
:10102000894505D1200603D4761E44F0800418E0DB
:10103000484602F02CFC08B3761E0DF123018B45C7
:1010400044F4007408D2A9F130000BF8010B20061B
:1010500007D5AAF1010003E0200602D40AF101003D
:101060008246A00502D51399681C0860B9691298D8
:101070006D1C88478146002ED1DC53E0002E51DDE7
:10108000B9F1650F02D0B9F1450F4BD1A00549D593
:10109000B9696D1C1298761E24F440748847002E9E
:1010A00081460CDD2B2804D0B9F12D0F07D144F473
:1010B0008074B96912986D1C8847761E8146E005D8
:1010C00001D52D2100E02B2108F8011BCDF800806F
:1010D00021E0761E0DF13901884544F400740CD2EC
:1010E000A9F1300010F0FF0088F8000002D100994B
:1010F000884509D908F1010806E0E00501D51E4838
:1011000001E042F20F708246B96912986D1C88475F
:10111000814613980560002E04DD484602F0B7FBB7
:101120000028D6D1F96912988847FF2053468BF8DA
:10113000000088F8000000200A900B9004AA0CA977
:101140000AA8FFF7ADFDA00502D46FF00100F8E694
:1011500014F0240F12D0E0071CD13868DDE90A1220
:10116000031D3B600068C0E9001213E04067000007
:1011700032670000F6650000F1D8FFFF0AA9684653
:1011800002F014FBE00705D13868009A011D3960B0
:10119000006802602846D4E60268114413780160B2
:1011A00018467047D1600549794451610449794432
:1011B000116200211161114600F00EB9EDFFFFFF31
:1011C00095010000426842B1016811F8013B23B16A
:1011D000521EC0E90012184670470121C160881EE6
:1011E000704742685AB1C368016843B983688B424B
:1011F00005D0491E521CC0E90012002070474FF074
:10120000FF3070472DE9F04115460E46040002D12B
:101210002C6804B90BA4204600F01AFB0444207883
:1012200070B127463146384600F002FB044420786E
:1012300010B1002004F8010B38462C60BDE8F081A5
:101240000027F9E70000000010B5203AC0F00B803D
:10125000B1E81850203AA0E81850B1E81850A0E8BA
:101260001850BFF4F5AF5FEA027C24BFB1E8185014
:10127000A0E8185044BF18C918C0BDE810405FEA84
:10128000827C24BF51F8043B40F8043B08BF704700
:10129000D20728BF31F8023B48BF11F8012B28BF05
:1012A00020F8023B48BF00F8012B70470048704708
:1012B000681B002000487047481B002030B5B0F183
:1012C0000A024FEA900E71F100034EEA817EB0EB04
:1012D0000E0061EB91014FEA101E4EEA017E10EB09
:1012E0000E0041EB11114FEA102E4EEA016E10EB89
:1012F0000E0041EB11214FEA104E4EEA014E10EB69
:101300000E0041EB1141401841F100014FEAD000BD
:1013100040EA41704FEAD10110EB80054FEA8104A9
:1013200044EA907444EB01046D1944EB0404521B2D
:10133000A3414FF0000348BF0A3200D530BD401C26
:1013400041F1000130BD10B5044600F0B9FA006863
:10135000005D00F0010010BD2DE9F0411F4604467C
:1013600003260168072A01F4006004DB08B116A512
:1013700005E016A503E008B115A500E015A521F0CC
:1013800010002060A069C01EA0610FB1401EA061C6
:101390002046AFF300804FB1D4E901213846904791
:1013A000206A401C2062C01C206206E0206AFAE726
:1013B000D4E9012115F8010B9047761EF8D220469A
:1013C000AFF30080BDE8F0814E414E006E616E00CB
:1013D000494E4600696E66002DE9F34F4FF0000A52
:1013E0000C4656468DB001200C9001F10C000B907C
:1013F00062690B9801219047051E2DD0252D2CD018
:10140000216A8847C0B162690B9801219047216A1F
:1014100088470028F7D16269411E0B98904700E089
:10142000761CA1690D988847216A88470028F7D162
:10143000E1690D988847DBE7A1690D988847A842C4
:10144000074601D1761CD3E7E1690D9888477F1CD8
:1014500002D1BAF1000F6FD06BE162690B980027DF
:101460003D46394690472A2804D162690B980121EC
:1014700090470125DFF8D08262690B9801219047DF
:10148000A0F130010A290AD24745E5DC07EB8701C4
:1014900000EB4107303FDFD445F01005ECE7E906EB
:1014A00001D46FF000476C280AD04C2814D068286B
:1014B00015D06A280DD074281CD07A281AD01DE0C7
:1014C00062690B98012190476C2802D045F0040511
:1014D00014E045F002050DE045F020050AE06269E0
:1014E0000B9801219047682802D045F0080505E0D7
:1014F00045F4006562690B9801219047C4E90157E2
:1015000065283DD019DC58287AD00CDC452837D026
:1015100004DC252826D041289ED131E046282FD052
:10152000472899D12CE05B2877D0612828D0632800
:101530007CD0642823D15AE0F6E06F2848D008DC3C
:1015400066281DD067281BD0692821D06E2816D1A7
:1015500027E0702845D0732868D0752847D07828B0
:101560000DD14DE0A1690D988847252805463FF427
:1015700069AFE1690D9888476D1C3FF46AAFD8E008
:101580000D9923466A466FF0010005F0FBFEC5E0A9
:1015900045F0400023464FF000026060A80736D4B3
:1015A0003EE0E8077FF447AF2068011D2160006836
:1015B000290501D506701BE7290701D5068017E725
:1015C000A90703D5F117C0E9006111E706600FE72D
:1015D00045F0400023464FF008026060A80716D48B
:1015E0001EE040F60E0125EA0100606016E045F0BD
:1015F000400023464FF00A026060A80707D40FE0BE
:1016000045F040006060A80708D5234610220D99D8
:101610006FF00100AFF3008080E007E01022234666
:101620000D996FF00100FEF75DFF77E04FF00009C4
:1016300063284F46C8464B46CB4602D05B2806D0AF
:1016400038E0E80601D40120A060012732E0626999
:10165000D4F80CB00B98012190475E2807D14FF0C9
:10166000010949466269D4F80CB00B98904721698A
:1016700039B900210A4603AB43F82120491C082947
:10168000FADBD8B3216949B308F1010862690B9804
:10169000012190475D28F4D1B9F1000F09D0002055
:1016A00003A951F82020D24341F82020401C0828EB
:1016B000F7DB03AB2069002820794FEA40701ED089
:1016C0005B462246CDF80080CDE901970D990028B0
:1016D0006FF0010020DAAFF300801FE0C11703AA0A
:1016E00000EBD1614B1121F01F0102EB8302411A83
:1016F00013680120884003431360C7E719E00D9980
:10170000224600286FF00100009702DAAFF3008054
:1017100004E0AFF3008001E0AFF3008000280ADAB4
:10172000401C06D10C9820B14FF0FF300FB0BDE83F
:10173000F08F5046FAE7E90701D10AF1010A0644A1
:1017400000200C9054E60000CCCCCC0C2DE9F047E6
:10175000814616468AB0354878440DC88DE80D009C
:1017600032487844801C03AC0DC884E80D0041F673
:101770009B300844372190FBF1F290FBF1F5A5F185
:10178000800501FB12041B3C02D56442012000E0ED
:101790000020DFF898A080460027FA44AAF1BE0A8C
:1017A0000EE0E0070AD03246684607EB4701012306
:1017B0000AEB810100F010FE8DE8070064107F1C29
:1017C000002CEED1194F7F44AE3F19E0E80715D049
:1017D00007EB04100DF1180A90E80E008AE80E00DD
:1017E000C068F04201D1981908903246012306A939
:1017F00003A800F0F1FD03AB83E807006D10641C43
:10180000002DE3D14FF0010332466946B8F1000FD5
:1018100003A802D000F0B6FD01E000F0DDFDC9E94B
:101820000001C9F808200AB0BDE8F087385D000063
:1018300030B503461D781DB10A4603E0AC4201D124
:10184000181A30BD12F8014B002CF7D15B1CF1E7E0
:1018500030B503461D783DB10A4612F8014B1CB164
:10186000AC42FAD15B1CF5E7181A30BD004870474E
:10187000481B00207546FFF7F9FFAE460500694694
:10188000534620F00700854618B020B5FEF70CFD42
:10189000BDE820404FF000064FF000074FF0000871
:1018A0004FF0000B21F00701AC46ACE8C009ACE8F2
:1018B000C009ACE8C009ACE8C0098D46704700001B
:1018C00010B5FFF7F3FC001D10BD00BF694F00000D
:1018D00010B5FFF7EFFC006810BD10B50446FFF728
:1018E000E9FC046010BD00002DE9FF4F1F464FF0DA
:1018F0003C0987B04FF00042DDE9141001F1010806
:10190000DDF858A002EA405003900020059083467D
:10191000054604460490B969461E08988847AAF10E
:10192000010A0290BAF1000F3BDD02982E2815D073
:101930001021FFF7A6F900282EDB4FF0010B0599C7
:10194000014317D0B9F1000F0BDB4A46C11700F075
:101950003FFA05430C43A9F1040905E00120049076
:101960000BE008B145F0010501200590049820B96D
:10197000361D02E0049800B1361FB969089808F1D5
:1019800001088847BBF1000FAAF1010A0290C9D0F3
:101990000999C1F80080C5E70298702808D050283E
:1019A00006D0F96908988847BBF1000F14D04FE0C2
:1019B000002002900120BBF1000F049009D0B9690A
:1019C000089808F101088847AAF10109B9F1000F48
:1019D00007DCF969089888476FF001000BB0BDE893
:1019E000F08F2B2804D02D280CD14FF0FF3004901D
:1019F000B969089808F101088847A9F10109B9F106
:101A0000000FE6DD411CE4D00A21FFF73AF9002877
:101A1000DFDB029908F1010801EB810100EB4100D5
:101A20000290B969089888470A21FFF72AF9099AAC
:101A3000A9F10109B9F1000FC2F8008001DD002809
:101A4000E7DAF969089888470499029800FB01666B
:101A500055EA040004D004F04041090002D006E039
:101A6000039898E0A40044EA9574AD00B61E04F013
:101A70000041080002D16D196441761E159810F0DE
:101A8000240F03D04FF00B095C4803E04FF0280906
:101A90006FF07D008246564507DAAAEB06018944BD
:101AA000B9F1410F01DD4FF0410901200021A9F1F9
:101AB000010200F08DF9024628400B462140084300
:101AC00001D0012100E00021501E029143F1FF31BD
:101AD00028402140084301D0012000E00020029965
:101AE000834651EA0B014FD0002108464FF0000019
:101AF000039900F4400039B100EB80004FF440013D
:101B000000EBD07001EA60008015012802DD4FF083
:101B1000FF3000E013D0401C36D0029860B3BBF118
:101B2000000F0CD14A460120002100F051F9284055
:101B30002140084301D0012000E00020E0B1012055
:101B40004A46002100F044F9034640190A46614123
:101B50002D1A8C4111D3B9F1400F09DD159810F001
:101B6000240F02D0AAF1340603E0AAF1170600E020
:101B7000761C00254FF0004406E05B1E42F1FF3268
:101B800020EA030521EA0204CAF10100B04206DAA4
:101B90001B49039808430190002000900EE0039A2F
:101BA000C4F3D321E80A0A43164940EA44500A43E1
:101BB0003146CDE90002684601F05EFE159810F04E
:101BC000240F0BD01598C00715D13868DDE9001235
:101BD000031D3B600068C0E900120CE002A86946E2
:101BE00001F0E4FD1598C00705D13868029A011D7F
:101BF0003960006802604046F0E6000002FCFFFF2A
:101C00000000F07F0000F03F2DE9FF4F92461D4697
:101C100085B04FF00041DDE9124BDDE914727F1E03
:101C200001EA4B50414940F0FF4940EA01080021D8
:101C300022F020004928049102D04E2828D04CE000
:101C40003BA0012607C88DE80700A9690698641C17
:101C500088477F1E014606D41DF8060018B121F002
:101C6000200181420BD0E96906988847032E34D0C1
:101C7000082E32D06FF0010009B0BDE8F08F761C5D
:101C8000032E01D0082EE0D1601CCAF80000DCE76A
:101C9000A9690698641C88477F1E2AD420F020007A
:101CA000412826D1A9690698641C88477F1E20D444
:101CB00020F020004E281CD1A9690698641C884792
:101CC0007F1E48F4002849F48009CAF8004001D476
:101CD000282806D0E969069888475FEACB7012D0B9
:101CE00022E0A9690698641C88477F1E01D4002859
:101CF00003DAE96906988847BCE72928F1D1641C12
:101D0000CAF80040E9E71BF0240F07D028680499BF
:101D1000031D2B600068C0E9001805E02868021D5B
:101D20002A600068C0F800902046A5E70000F07F18
:101D3000494E46494E4954590000000010B504462A
:101D4000AFF300802046BDE81040FEF74CBA00001B
:101D50004FF0013C50F8042B51F8043B9A4221D13A
:101D6000A2EB0C03934313EACC1317D150F8042BC6
:101D700051F8043B9A4215D1A2EB0C03934313EAAA
:101D8000CC130BD150F8042B51F8043B9A4209D1E3
:101D9000A2EB0C03934313EACC13DBD04FF000000B
:101DA000704700BFD01A01BAB1FA81F101F01801F1
:101DB00022FA01F0CB40C1F12001DBB2C0B2C01A5F
:101DC0002CFA01F3D11A914311EAC311E6D17047FD
:101DD000B2F120030AD5C2F1200301FA02F120FA80
:101DE00003F300FA02F041EA0301704700FA03F13D
:101DF0004FF000007047000001491820ABBEFEE71D
:101E00002600020070475FEA400C08BF91F0000F07
:101E10004FEA8C234FEAC12243EA51514FEA1C504A
:101E200018BF00F5F0404FEA300018BF41F0004104
:101E30005FEA6C5C00F02980BCF1FF3F08BF40F016
:101E400080407047130C06BF12044FF0100C4FF087
:101E5000000C130E04BF12020CF1080C130F04BF88
:101E600012010CF1040C930F04BF92000CF1020C50
:101E7000D30F04BF52000CF1010C11464FF00002C9
:101E8000A0F11F00A0EB0C00704711F0004F08BF3D
:101E9000704731F000413FF4D5AF0B0C06BF090489
:101EA0004FF0100C4FF0000C0B0E04BF09020CF1A8
:101EB000080C0B0F04BF09010CF1040C8B0F04BFBD
:101EC00089000CF1020CCB0F04BF49000CF1010C8E
:101ED000CCF12003A0EB0C0022FA03F302FA0CF27F
:101EE00041EA030100F10100704720F07F4C80EAD5
:101EF000030023F07F47ACEB070303F57C5300F0AE
:101F0000004003F1FF032DE980494FEA154B09B466
:101F10004FEA144325EA0B4E24EA03480FF2042645
:101F200006EB132749083E785FEA320203FB066797
:101F3000C7F5000707FB06F64FEA54374FEAD646C7
:101F400006F1020607FB066CCCF1005C4FEA1C4769
:101F50002CEA074C07FB06F40CFB06F504EB1546D0
:101F60004FEA961634BF00204FF000404FEAD137B9
:101F700006FB07FC4FEA1C4C0CFB0BF7D21B03FBC8
:101F80000CF761EB07010CFB0EF7B0EB074072EBAF
:101F900017420CFB08F734BFA2EB0742B2EB074233
:101FA00061EB17414FEA0C444FEA910706FB07FC2F
:101FB0004FEA1C4C0CFB0BF7B0EBC74072EB5732EF
:101FC00003FB0CF734BFA2EBC742B2EBC74261EB95
:101FD00057310CFB0EF7B0EBC70072EB57720CFBDE
:101FE00008F734BFA2EBC702B2EBC70261EB57712F
:101FF000039F4FEA816141EA921104EBCC044FEA5E
:10200000D1374FEA826206FB07FC42EA90124FEAA0
:1020100080604FEA1C4C0CFB0BF7D21B03FB0CF748
:1020200061EB07010CFB0EF7B0EB074072EB1742B8
:102030000CFB08F734BFA2EB0742B2EB074261EB9F
:1020400017414FEA8C554FEA910704EB9C2406FB9D
:1020500007FC4FEA1C4C0CFB0BF7B0EBC74072EBD4
:10206000573203FB0CF734BFA2EBC742B2EBC742B7
:1020700061EB57310CFB0EF7B0EBC70072EB5772F8
:102080000CFB08F734BFA2EBC702B2EBC70261EB4F
:10209000577115EB4C254FEA816141EA92114FEAE5
:1020A00082624FEAD13742EA901206FB07FC44F104
:1020B00000044FEA80604FEA1C4C0CFB0BF7D21B6C
:1020C00003FB0CF761EB07010CFB0EF7B0EB0740CD
:1020D00072EB17420CFB08F734BFA2EB0742B2EBDE
:1020E000074261EB174115EB1C154FEA813141EABC
:1020F00092414FEA823242EA90424FEA80304FEA00
:102100000C7644F1000448EA03434EEA0B484FF0D2
:10211000000EB2EB080C71EB030724BF6246394690
:102120004EEB0E0E4FF0000B0018524149414BEBA5
:102130000B0BB2EB080C71EB03077BF1000B24BF18
:10214000624639464EEB0E0E4FF0000B001852411E
:1021500049414BEB0B0BB2EB080C71EB03077BF126
:10216000000B24BF624639464EEB0E0E51EA0207C1
:1021700018BF46F0010616EB0E7655F1000254F139
:10218000000103D5BDE88901BDE80088BDE88901EB
:10219000BDE80048B619524141EB0101A3F101032A
:1021A000704780807F7E7D7C7B7A797877767675C4
:1021B0007473727171706F6E6E6D6C6C6B6A6A693C
:1021C0006868676666656464636362616160605FD6
:1021D0005F5E5E5D5D5C5C5B5B5A5A59595858574F
:1021E00057565655555554545353525252515150B7
:1021F00050504F4F4F4E4E4D4D4D4C4C4C4B4B4B0A
:102200004A4A4A494949484848474747474646464F
:10221000454545444444444343434342424242418A
:102220004141000046EA0646A3F570534FEA1646C0
:1022300046EA42564FEAD22242EA415210B54FEAEC
:10224000D121A3F1010300F02FF820F0004000F1AC
:10225000020C00F0004701EB00501146BCF5006F86
:1022600040EA070000D210BDBAF1000F0AD01CB539
:1022700003B44FF004004FF004014FF000000FBC16
:10228000BDE810404FF00001BBF1010FB9BF044899
:102290004FF0FF310348002140EA070010BD00BFA6
:1022A000FFFFEF7F0000F07F002B9C4630D47700CB
:1022B0002BD01CB54FEA370703B44FF010004FF096
:1022C0001001BAF1000F06D0BCF1000FDCBF40F0E6
:1022D000080040F008014FF000000FBCBDE81040BE
:1022E0000BF1010BBBF1010F08BF5FEA170722BF1B
:1022F00012F1010211F101014FF0004143F100031D
:1023000000F0004043EA00007047F9D35708D0E7D7
:1023100046EA064613F1400F4FEA16461FDD13F159
:10232000200FDFBF16430A46002120335B42BED098
:10233000C3F1200746EA064602FA07F74FEA1646B7
:1023400046EA0706C3F1200722FA03F201FA07F76B
:1023500021FA03F14FF0000342EA0702A7E746EA39
:10236000020646EA06464FEA164646EA0106BCBFA2
:1023700046EA0646360C4FF000034FF000024FF0DD
:10238000000194E72DE9804C9A46934670B491E899
:10239000380007C831EA400C48BF34EA430C03D583
:1023A000FFF7A3FDFFF780FFF0BCBDE8008C2DE92F
:1023B000804C9A46934670B491E8380007C831EAD9
:1023C000400C48BF34EA430C03D5FFF78EFDFFF7FE
:1023D00029FFF0BCBDE8008C2DE9804C9A4693465D
:1023E00070B491E8380007C810F0804F08BF13F0B0
:1023F000804F03D100F01AF8FFF756FFF0BCBDE89C
:10240000008C2DE9804C9A46934670B491E83800D0
:1024100007C810F0804F08BF13F0804F03D100F0C1
:1024200005F8FFF7FFFEF0BCBDE8008C20F07F4709
:1024300080EA030023F07F4C07EB0C03A3F57C53E9
:1024400000F00040A3F1FE0392F0000F00F0B38013
:1024500095F0000F00F077802DE901494FEA114017
:102460004FEA144621EA004800FB06FC24EA06472E
:1024700008FB06F607FB08F800FB07F718EB064811
:102480004CEB164C4FEA124B18EB07484FEA154637
:102490004CEB174022EA0B4E0BFB06FC25EA0647E5
:1024A0000EFB06F607FB0EFE0BFB07F71EEB064EB8
:1024B0004CEB164C4FF000061EEB074E4CEB174B47
:1024C00018EB0B0840F1000018EB0E0B58EB00085E
:1024D00040F100008F1A4FF000013CBFC943661B5A
:1024E00014BFB5EB040C00213CBFC943F61B4FEAF7
:1024F00017444EEA8E0E27EA04454FEA1C4704FBB8
:1025000007622CEA074C05FB07F70CFB05F604FBFA
:102510000CFC16EB074642EB174216EB0C4642EB5F
:102520001C421BEB060658EB0202414146EA9E069E
:1025300001D5BDE80189B619524141EB0101A3F172
:102540000103BDE801894FEA14454FEA114724EA27
:10255000054621EA074C05FB07F406FB07F70CFBD1
:1025600006F105FB0CFC11EB074144EB17444FEA65
:10257000124711EB0C4144EB1C4422EA074C05FBCB
:1025800007F206FB07F70CFB06F605FB0CFC16EB47
:10259000074642EB174216EB0C4642EB1C456A1805
:1025A00054F1000148BF7047B619524141EB010197
:1025B000A3F10103704795F0000F37D04FEA1142A5
:1025C0004FEA144721EA024624EA074C02FB07F1CE
:1025D00006FB07F70CFB06F402FB0CFC14EB0744AC
:1025E00041EB17414FEA154714EB0C4441EB1C41FA
:1025F00025EA074C02FB07F506FB07F70CFB06F67E
:1026000002FB0CFC16EB074645EB174516EB0C4698
:1026100045EB1C42121951F1000148BF7047B61931
:10262000524141EB0101A3F1010370474FEA144508
:102630004FEA114724EA054621EA074C05FB07F15A
:1026400006FB07F70CFB06F24FF0000605FB0CFC3F
:1026500012EB074241EB174112EB0C4251EB1C41CC
:1026600048BF7047921841EB0101A3F10103704785
:1026700070B505460E463146284600F089FE002416
:102680000BE0C4EB0410064A02EB8001032000F0CB
:102690000DFE642000F010FA641C062CF1DB70BD06
:1026A0001800002010B508A1032000F0FFFD0A204B
:1026B00002F018FC06A1032000F0F8FD0A2002F049
:1026C00011FC0748C07910BD41540D0A00000000FC
:1026D00041542B434C42533D312C310D0A00000034
:1026E000180400202DE9F0418AB007460D469046B7
:1026F0001E46282213496846FEF752F812A1684682
:10270000FDF796FF044611A10020FDF791FF044656
:102710000EA10020FDF78CFF044624B1424621465D
:102720003846FEF73DF809A10020FDF781FF044679
:1027300024B1324621462846FEF732F80AB0BDE8F9
:10274000F0810000180400203A0000002C00000076
:1027500038B50F48006800900E490F48FDF76EFF2E
:1027600069460D483C30FDF769FF00240CE0C4EBDE
:102770000410094AB43A02EB8001022000F096FDF1
:102780000A2002F0AFFB641C052CF0DB38BD000012
:10279000E07300085C030020340200202DE9FE4FA6
:1027A00080464FF0000A2F4A07CA8DE80700B8F8A4
:1027B000001088B201F09EF80446B8F8041088B200
:1027C00001F098F80546B8F8081088B201F092F8C0
:1027D0000646042E03D0042C01D0042D07D1224834
:1027E000006840F4007020490860BDE8FE8F1E4874
:1027F000006820F400701C49086016B90CB905B9CE
:10280000F3E7042E07D1042C05D1042D03D10A20AF
:1028100000F0DEF8E9E704274FF0FF39002E04DD71
:10282000BE4202DA37464FF00209002C04DDBC42FA
:1028300002DA27464FF00009002D04DDBD4202DA1E
:102840002F464FF0010909F1010048B109EB490099
:1028500069460144781E11F800A0504600F0B8F80F
:1028600000BFC2E7F07300080C0C014010B55148DE
:10287000806940F001004F4988614F48806840F00E
:1028800001004D4988604D48006840F001004B4907
:1028900008604A480830006820F0010047490831C4
:1028A0000860081D006840F00100091D086002234F
:1028B00000221146184601F0CDF84148006840F06A
:1028C00001003F4908603D481430006840F00100B5
:1028D0003A491431086006200521002804DB0A0764
:1028E000130E384A135406E00A07140E364A00F055
:1028F0000F031B1FD45400BF062000F036FF2E48E4
:10290000006920F470412C4801612C48006840F4B3
:1029100000602A49086029480830006820F40060F7
:10292000264908310860081D006840F40060091D50
:102930000860022300220B21012001F08BF82348BC
:10294000006840F4006021490860282000F00DFF75
:102950001948406920F00F01174841611748006885
:1029600040F480501549086014480830006820F48D
:102970008050124908310860081D006840F48050FA
:10298000091D0860022300220C21012001F062F8D9
:102990000E48006840F480500C4908600748143025
:1029A000006840F48050054914310860282000F088
:1029B000DCFE10BD00100240000001400004014098
:1029C0000C0C014000E400E018ED00E00C080140B0
:1029D00010B5044622460121032000F001F810BD85
:1029E000FEB504460D46164604F205102844304450
:1029F0000C490880084600884FF6FF71081A401CF1
:102A000008490880084A07CA8DE807008DF8034086
:102A10008DF805508DF806600A226946022000F004
:102A200053FCFEBDB0020020E473000810B504465C
:102A3000224600210620FFF7D3FF10BD70B50446E3
:102A40000D462946204600F0A3FC322000F034F861
:102A5000022200213F20FFF7C3FF322000F02CF8B4
:102A6000012200213D20FFF7BBFF322000F024F8B7
:102A70000F20FFF7DBFF002303220921022000F0D3
:102A8000E9FF0348006820F400700149086070BD48
:102A90000C0C014007484FF0E0214861002088619C
:102AA00000BF4FF0E020006900F480300028F8D02B
:102AB000704700004019010000B5024602E0FFF730
:102AC000E9FF521E002AFAD100BD000010B5002314
:102AD00003220421012000F0BDFF0223032205216F
:102AE000012000F0B7FF012300220621184600F064
:102AF000B1FF022303220721012000F0ABFF0A48A7
:102B0000806940F4805008498861084800880020A6
:102B1000064908800846808800208880084600888A
:102B200040F45770088010BD001002400030014092
:102B300030B50346002015E000BF114C248904F095
:102B40000204002CF9D01C5C0D4DAC8100BF0C4C74
:102B5000248904F00104002CF9D0094CA48901F85F
:102B6000014B401C9042E7DB00BF0548008900F0A4
:102B700080000028F9D1024880890148008930BDD1
:102B80000030014000B589B01E48D0E9013201682B
:102B9000C068CDE90632059108901A4B10330FCB6F
:102BA000CDE90323CDE901010A2002F09BF9164883
:102BB000006820F01000144908601022134905A88D
:102BC000FFF7B6FF1048006840F010000E4908609B
:102BD0000A2002F087F90C48006820F010000A492A
:102BE000086010220949103101A8FFF7A1FF06482B
:102BF000006840F01000044908600448007809B0FB
:102C000000BD0000C07300080C080140F003002064
:102C10002DE9F0418AB007460D4690461E4628220F
:102C200010496846FDF7BCFD0FA16846FDF700FDA1
:102C300004460DA10020FDF7FBFC044624B14246EA
:102C400021463846FDF7ACFD07A10020FDF7F0FC5A
:102C5000044624B1324621462846FDF7A1FD0AB0BC
:102C6000BDE8F081F00300202C00000008B5002032
:102C700000900F48006800F0010058B10C4800684F
:102C800040F001000A4908606A46002109480068CE
:102C900002F056F900BF009838B14FF08050064955
:102CA0000860BFF34F8FBFF36F8F00BF08BD0000F8
:102CB000140401401400002004ED00E00B480068FB
:102CC00000F4805088B10948006840F480500749FA
:102CD00008600748007880F0010005490870054841
:102CE000006820F400700349086070471404014034
:102CF000060000200C0C014070B504460D46294624
:102D0000204600F045FB70BD2DE9F04F9FB0804696
:102D10000C46052208F101012046FDF741FD002087
:102D20006071642106A8FDF714FD6422414606A8DF
:102D3000FDF736FD8BA106A8FDF77AFC05464FF09E
:102D4000000909E1B9F1070F77D2DFE809F0FA04C9
:102D5000181B7788E9000A22294604F10A00FDF7CA
:102D60001FFD0021E17404F10901481EE31DA21DAD
:102D7000CDE900017CA12846FDF796FBE2E028782A
:102D80002075DFE00A22294604F12800FDF708FD3E
:102D900000213120015504F1200304F1180278A12B
:102DA0002846FDF781FBD4E90821104603F0DAFF3D
:102DB0006076607E04F003F8CDE90001D4E908A351
:102DC000524604F07FF90022704BCDE9020104F075
:102DD00045F8CDE9040103F0C5FF608300226C4B88
:102DE000D4E908A1504603F029FECDE90401207E74
:102DF00003F0E5FFCDE90201DDE9042303F062FD04
:102E000006460F460022634B3046394604F026F84A
:102E10000022614BCDE9000103F054FD824603F02E
:102E2000A1FF039003F0CBFF00225A4BCDE9040130
:102E300003F004FEC4E9080184E082E0287884F805
:102E4000320094F83200532808D10022534BD4E9C1
:102E500008A1504604F002F8C4E9080172E00B2210
:102E6000294604F14800FDF79BFC00215220015542
:102E700004F1400304F1380249A12846FDF714FB90
:102E8000D4E91021104603F06DFFC1B2392001557D
:102E90003921085D03F093FFCDE90201D4E9100167
:102EA000CDE90001DDE9022304F018F98246002291
:102EB000364B03F0D3FFCDE9040103F053FF6087E5
:102EC0000022334BD4E910A1504603F0B7FDCDE901
:102ED000040194F8380003F072FFCDE90201DDE946
:102EE000042303F0EFFC06460F460022294B304630
:102EF000394603F0B3FF82460022274B03F0E2FC81
:102F0000CDE9000103F02EFF039003F058FF0022EB
:102F1000204BCDE9040103F091FDC4E9100111E05B
:102F2000287884F8530094F85300572808D10022D9
:102F30001A4BD4E910A1504603F090FFC4E91001E8
:102F400000E000BF00BF07A10020FDF771FB0546B0
:102F500009F1010000F0FF09002D7FF4F3AE1FB06E
:102F6000BDE8F08F2C0000002532686875253268B6
:102F7000687525326868752E25326868750000000E
:102F80002532686875256C66000000000088C34023
:102F900000004E4080842E410000E03F0000F0BF62
:102FA0002533686875256C660000000001460868D6
:102FB000052804D90868C82801D2086800E0002064
:102FC00008600868704700002DE9FF4780461446F6
:102FD0001D46B8F1030F04DB0020014604B0BDE834
:102FE000F087354800EBC800D0E90063334800EBB8
:102FF000C801D1E900913246484603F063FCCDE9AF
:1030000002012E4800EBC800C0C80B4630463946C6
:10301000029A03F013FD2A4A02EBC80203C22948B0
:1030200000EBC800D0E9006332462046294604F090
:1030300055F88146224800EBC800D0E900633246CB
:10304000484603F00BFFCDE902011E4800EBC80023
:10305000D0E900633246029803F034FC194A02EBCF
:10306000C80203C2184800EBC8011448D1E9006344
:1030700000EBC801D1E900913246484603F022FC3A
:10308000CDE902010E4800EBC800D0E900633246EA
:1030900000200E4904F022F8CDE90001DDE9022309
:1030A00003F0DCFE054A02EBC80203C2054800EB50
:1030B000C80103C992E7000000740008A8040020BA
:1030C000D8040020C0040020B80200200000F03F17
:1030D00010B500F001F810BD0CB500200190009073
:1030E0003348006840F480303149086000BF304800
:1030F000006800F4003000900198401C0190009896
:1031000018B90198B0F5A06FF1D12948006800F412
:10311000003010B10120009001E0002000900098E4
:10312000012843D12348006840F01000214908607D
:103130000846006820F0070008600846006840F074
:10314000020008601A48406819494860084640680B
:1031500048600846406840F480604860084640681F
:1031600020F47C1048600846406840F4E81048604D
:103170000846006840F08070086000BF0C48006896
:1031800000F000700028F9D00948406820F00300E2
:10319000074948600846406840F00200486000BFA8
:1031A0000348406800F00C000828F9D10CBD00006D
:1031B000001002400020024010B500BF502080F3F4
:1031C0001188BFF34F8FBFF36F8F00BF02F0B8FFBE
:1031D00018B14FF080500449086000BF002080F310
:1031E000118800BF10BD000004ED00E010B51348C9
:1031F000006840F001001149086008464068104925
:1032000008400E494860084600680E4908400B49CE
:1032100008600846006820F480200860084640687E
:1032200020F4FE0048604FF41F008860FFF750FF55
:103230004FF000600449086010BD0000001002401B
:103240000000FFF8FFFFF6FE08ED00E0014601294F
:103250000BD100BF124A128802F02002002AF9D0D6
:103260000F4A121D1288D0B20CE002290AD100BF09
:103270000C4A128802F02002002AF9D0094A121DD5
:103280001288D0B203290AD100BF074A128802F07F
:103290002002002AF9D0044A121D1288D0B27047C9
:1032A00000380140004400400048004030B5054669
:1032B0000B46002404E0195D284600F03DF8641C2C
:1032C000185D0028F7D130BD30B50346002029E055
:1032D000012B0BD100BF154C248804F08004002C76
:1032E000F9D00C5C114D2D1D2C801AE0022B0BD156
:1032F00000BF0F4C248804F08004002CF9D00C5C33
:103300000B4D2D1D2C800CE0032B0AD100BF094C66
:10331000248804F08004002CF9D00C5C054D2D1D90
:103320002C80401C9042D3DB30BD000000380140AF
:10333000004400400048004001280AD100BF114A63
:10334000128802F08002002AF9D00E4A121D118064
:103350000BE0022809D100BF0B4A128802F080025C
:10336000002AF9D0084A121D1180032809D100BF94
:10337000064A128802F08002002AF9D0034A121D80
:103380001180704700380140004400400048004070
:103390002DE9F04104460E463146204600F016F96C
:1033A00005465248806940F0010050498861012C6F
:1033B0003CD10846806940F48040886102230322A2
:1033C0000921012000F046FB022300220A210120EE
:1033D00000F040FB46490D80081D008840F00800C1
:1033E000091D08800846008840F00400088008464F
:1033F000008840F4005008800846008840F0200013
:10340000088025200621002804DB0A07130E394A0C
:10341000135406E00A07170E374A00F00F031B1F6C
:10342000D75400BF252000F08FF95CE0022C2CD18E
:103430002E48C06940F400302C49C86102230322A1
:103440001946012000F006FB02230022032101207F
:1034500000F000FB29490D80081D008840F008009D
:10346000091D08800846008840F0040008800846CE
:10347000008840F4005008800846008840F0200092
:103480000880262000F060F92DE0032C2BD117488E
:10349000C06940F480201549C861022303220A2133
:1034A000184600F0D7FA022300220B21184600F03C
:1034B000D1FA13490D80081D008840F00800091D4D
:1034C00008800846008840F004000880084600880C
:1034D00040F4005008800846008840F02000088032
:1034E000272000F031F9BDE8F08100000010024013
:1034F0000838014000E400E018ED00E00844004016
:103500000848004010B50120FFF7A0FE0446242C17
:1035100002D100200549087005480449097844543F
:1035200002480078401C0149087010BDB20200201A
:103530004004002010B50320FFF788FE0446214612
:103540000220FFF7F9FE2B2C03D01C48007801283D
:1035500033D101201949087019480078052803DB88
:1035600018480078012809D11748154909784454AA
:1035700013480078401C1249087015E01048007884
:10358000052811D1104880784C280DD13A2C0BD148
:103590000D480B490978445409480078401C0849F3
:1035A00008700120074908700A2C06D1002005493F
:1035B0000870034908700149087010BDAE02002070
:1035C000AC020020AD020020180400202DE9F04FCD
:1035D00089B083468A46DFF8B49000252C4E00BFA0
:1035E000BBF1010F02D14FEA49092A4E4FEA0A10F6
:1035F000B9FBF0F9484603F0E2FBCDE904014FEADC
:103600000A1003F0DCFB02460B46CDE90001284618
:10361000314603F013FACDE90201DDE9042303F09A
:103620005DFD00221C4BCDE9060103F017FC0546A9
:103630000E462846314603F095FB0446204603F02B
:10364000BEFB2A463346CDE9040103F03BFD0022D0
:10365000124BCDE9060103F001FC07468846002223
:103660000F4B3846414603F0F7FC05D2641C102C82
:1036700002D1002409F101094FEA091008900898C5
:1036800020440890089809B0BDE8F08F0051250249
:10369000882A8141882A9141000030400000594029
:1036A0000000494010B50F48806940F001000D4905
:1036B00088610D48406840F400600B494860012370
:1036C00044F620620021184601F0A2F9012344F6D5
:1036D00020621946184601F0E9F83C20FFF7ECF9A2
:1036E00010BD0000001002400000014070B504460B
:1036F0000121084601F05CF9A0F6AC003A2190FBEC
:10370000F1F020602046FFF751FC40B1206803F043
:1037100056FB05462A460B460020FFF755FC70BDB8
:10372000490050EAC12018BF04204A0D18BF40F0DC
:10373000010040F2FF72B2EB515F08BF40F002009F
:10374000012808BF0520704700280DDB00BF00BF1F
:1037500000F01F02012191404209920002F1E02293
:10376000C2F8001100BF00BF704700280DDB00BF8A
:1037700000BF00F01F02012191404209920002F1B6
:10378000E022C2F8001100BF00BF704740F20132D2
:1037900000204FF0E04103F0C7BD0000024A0020C6
:1037A000110703F0C1BD000001FDFFFF10B5044685
:1037B000D1E9000100F002F8206010BDF8B5044620
:1037C0000D466A4600F06AF800987E3000900028A6
:1037D0001EDC002213462046294603F087FA17D044
:1037E000002140F608004FF000000646204629461A
:1037F00003F036F8044640F6080006EA00014FF0F0
:10380000000034F0004004BF0220FEF766F829E013
:103810000098FF2828DB002108464FF0000000F444
:103820004006002213462046294603F015FC8CBFB3
:10383000002501250220FEF750F84FF0FF4446B165
:10384000002D0CBF4FF400004FF48000B04218BFB1
:10385000084C042108464FF00000002D04BF84F0FE
:103860000040F8BD2046F8BD20462946BDE8F84096
:1038700002F0F6BFFFFF7F7F10B504460A46D4E989
:103880000003194600F040F9C4E9000110BD3038CA
:103890000A2801D2012070470020704710B5144655
:1038A00000222260114A21F000439342A8BF10BDBC
:1038B00053EA000208BF10BDB3F5801FA8BF2268FD
:1038C00007DA362203F030FD6FF0350221F00043B5
:1038D0002260DFF81CC06FF31E510CEB23531A4417
:1038E00041F0FF5141F00051226010BD0000F07F17
:1038F00002FCFFFF01461E2903DA052901DD042031
:1039000070473C2903DA322901DD0320F8E77829E2
:1039100003DA642901DD0220F2E7C82903D2B429C1
:1039200001D90120ECE70020EAE70246012A1FD175
:103930000C291BD2DFE801F006080A0C1A1A0E1037
:1039400012141618012070470220FCE70320FAE742
:103950000420F8E70120F6E70220F4E70120F2E76F
:103960000220F0E70320EEE70420ECE70020EAE77E
:10397000022A1AD10A2916D2DFE801F00507151527
:10398000090B0D0F11130320DDE70420DBE70120F5
:10399000D9E70220D7E70120D5E70220D3E70320AB
:1039A000D1E70420CFE70020CDE70020CBE70000DF
:1039B0000246012A11D1042901DA8007704707293C
:1039C00003DD0C2901DA0D48F8E7052903DD082994
:1039D00001DA0B48F2E70020F0E7022A0BD10529B3
:1039E00001DC0748EAE7052903DD0A2901DA054871
:1039F000E4E70020E2E70020E0E70000002C0140BF
:103A000000040040000800400246012A11D10429A8
:103A100001DA02207047072903DD0C2901DA0120B1
:103A2000F8E7052903DD082901DA0320F2E7002081
:103A3000F0E7022A0BD1052901DC0320EAE705297A
:103A400003DD0A2901DA0420E4E70020E2E7002090
:103A5000E0E700002DE9F04104460D4616462946F0
:103A60000022072D03DDA1F10807B9B20122012CC4
:103A70000BD1214FBF6947F00407DFF87CC0CCF8B9
:103A800018701E4F07EB82001AE0022C0BD11A4F60
:103A9000BF6947F00807DFF860C0CCF81870184F0E
:103AA00007EB82000CE0032C0AD1134FBF6947F0EB
:103AB0001007DFF844C0CCF81870124F07EB8200F3
:103AC00007684FEA81084FF00F0C0CFA08FC27EA50
:103AD0000C0707608F0006FA07F74FF0020C0CEB9B
:103AE000810C03FA0CFC47EA0C07D0F800C047EA47
:103AF0000C070760BDE8F08100100240000801409B
:103B0000000C0140001001402DE9F04106460C4632
:103B100040F2FF75174635EA14502BD000221346A9
:103B2000304603F0E3F825D03A463046214603F00C
:103B3000FBFB06460C4635EA145010D00022134613
:103B4000304603F0D3F815D10220FDF7C6FEFFF78B
:103B500025FE0A46214662F31E01BDE8F0810220DF
:103B6000FDF7BBFEFFF712FE0A46214662F31E0177
:103B7000BDE8F08130462146BDE8F0811CB572B643
:103B800000F088FEFEF772FEFEF7A0FF4FF416511C
:103B90000220FEF753FF4FF4E1310320FEF768FDEA
:103BA0004FF416510120FFF7A7F8FFF77BFD012026
:103BB00001F07CFD1849086008460068002826D0FE
:103BC000002000900346802214A10190184802F0C2
:103BD00009F91848012100238022CDE9001016A11F
:103BE000174802F0FFF817480021174B8022CDE953
:103BF000001016A1194802F0F5F819480221002317
:103C00008022CDE9001017A1184802F0EBF862B647
:103C100001F002FC00BFFEE708000020556C747242
:103C200061736F6E69634D65617375726500000045
:103C30003D5500080C000020416C657274000000C6
:103C4000994E0008100000205C0300204C6F636157
:103C500074696F6E48616E646C657200F55000089F
:103C60001400002053656E64534D5300E95300085F
:103C70002DE9F04705460E46234807682348D0F84B
:103C800000802348D0F8009022480068001D00F012
:103C9000A7FF681CE0B9DEB100BF1F4948681D4995
:103CA000096888601B4982680968CA6019490968FF
:103CB000091D8268516017490968091D8160164A0B
:103CC000144909684A6111460968491C116018E0E5
:103CD0007C19104800684460BC4206D20D48016857
:103CE000091D484600F0B8FF0BE00A480168091DAD
:103CF000404600F0B1FF09480068844201D20748FD
:103D00000460BDE8F087000008030020F8020020EE
:103D1000FC020020F4020020A4150020240300204F
:103D200010B5044600F0B2FF33480068401C324929
:103D300008603248006840B93048046008460068AE
:103D400001280DD100F0D6FA0AE02D48006838B9F4
:103D50002A480068C06AE16A884201D8274804609E
:103D600028480068401C2749086000BF00BF26495A
:103D7000E06A0968884202D92349E06A086000BF06
:103D800000BFE16A01EB8101204A02EB8101486832
:103D9000A0608268E260211D826851608160E16AF2
:103DA00001EB8101194A02EB81026261E16A01EBD8
:103DB0008101164A52F82110491CE26A02EB820284
:103DC000124B43F8221000BF00BF00F089FF0C48DF
:103DD000006878B100BF09480068C06AE16A88429B
:103DE00007D24FF080500A490860BFF34F8FBFF3EE
:103DF0006F8F00BF10BD000004030020F4020020FC
:103E000010030020200300200C030020F0140020E9
:103E100004ED00E008B500F039FF0E480068A8B9CD
:103E20000D4800F009FF0D4800F006FF0A480C4954
:103E300008600A480B49086000200B4B0B4A0C2114
:103E400000900A2001F079FC0249086000F048FF68
:103E500008BD00003C030020601A0020741A0020F6
:103E60003403002038030020881A0020D01A0020D4
:103E700010B516E000F00AFF0C48C068C468201DA9
:103E800000F0AEFE0A480068401E09490860094873
:103E90000068401E0749086000F022FF204600F03D
:103EA0002EF9044800680028E4D110BD90150020C8
:103EB000040300200003002070B504460D46206C6A
:103EC00070B1216CE0680144E160D4E902108842DD
:103ED00001D32168E1602846226CE168FCF7D2FB3F
:103EE00070BD2DE9F04104460F4615464FF000081D
:103EF000A66B206C48B9206800282CD1A06802F07D
:103F0000F9F980460020A06025E07DB93946226C91
:103F10006068FCF7B7FB216C606808446060D4E916
:103F20000101884217D32068606014E03946226C92
:103F3000E068FCF7A7FB216CE068411AE1602168AA
:103F4000E068884203D2216CA068411AE160022D2A
:103F500001D106B1761E701CA0634046BDE8F08119
:103F6000F0B58BB001260027002508E01AA0405DBF
:103F700007A9485507A8405D00B902E06D1C102D47
:103F8000F4DB00BF002421E0154F002006900590CF
:103F900004AA05A906A800F037FE0022DDE90510F5
:103FA0001346CDE90021029007A93846049A01F092
:103FB00035FF0C4941F82400084650F8240008B1A8
:103FC000012600E0002606B902E0641C012CDBDBC0
:103FD00000BF30460BB0F0BD49444C450000000026
:103FE000C5410008280300202DE9FF4F85B0074692
:103FF00088469146DDE9144BDDE912A60EB1012099
:1040000000E0002050B900BF502080F31188BFF3BA
:104010004F8FBFF36F8F00BF00BFFEE70CB10120D1
:1040200000E0002050B900BF502080F31188BFF39A
:104030004F8FBFF36F8F00BF00BFFEE75420049087
:104040000498542801D1012000E0002050B900BF9D
:10405000502080F31188BFF34F8FBFF36F8F00BFE5
:1040600000BFFEE700BFB4B1AEB1254654212846DB
:10407000FCF76FFB2C462E63022085F851000020D0
:10408000CDE900ABCDE902504A4641463846089B8F
:1040900000F0CEF800E00025284609B0BDE8F08F1A
:1040A0002DE9FF5F0746884616469946DDE90EABC7
:1040B000B00000F059FB054675B1542000F054FBE8
:1040C00004462CB154212046FCF743FB256304E051
:1040D000284600F023FE00E0002464B1002084F8AC
:1040E00051004B4632464146CDE900ABCDE9024096
:1040F000384600F09DF8204604B0BDE8F09F10B5AA
:10410000044694F8510030B9206B00F007FE2046B9
:1041100000F004FE1AE094F85100012803D1204673
:1041200000F0FCFD12E094F85100022801D10120BA
:1041300000E0002050B900BF502080F31188BFF389
:104140004F8FBFF36F8F00BF00BFFEE710BD01466A
:104150004A6A22B10A6B1268C2F1050000E0002031
:10416000704700000146084A126812680AB9012225
:1041700000E000220A600A6822B9034A1268D26885
:10418000106800E000207047340300200A4A22F043
:1041900007000A4A10600022084B5A6040F6F87285
:1041A000074B5A6000221A60014640F6F8724A60D6
:1041B0001A460A6070470000F7040020D002002071
:1041C000D802002000BFFFF753FE06480068012810
:1041D000F9D94FF0805004490860BFF34F8FBFF307
:1041E0006F8FF0E7F014002004ED00E010B50446F6
:1041F00054B10020A06020600021E16000231A4635
:104200001946204601F054FB10BD2DE9F041064649
:104210000D4617469846069C0DB9246000E02760BD
:10422000E66325640121204601F0D4FABDE8F0815F
:104230002DE9FF5F81460F469246DDE90E6B109C2B
:10424000AAF10100216B01EB800828F0070808F0B3
:10425000070008B9012000E0002050B900BF50203D
:1042600080F31188BFF34F8FBFF36F8F00BF00BF84
:10427000FEE77FB1002507E0795D04F13400415588
:10428000785D00B902E06D1C102DF5D300BF002150
:1042900043200155052E01D2012000E0002050B935
:1042A00000BF502080F31188BFF34F8FBFF36F8F93
:1042B00000BF00BFFEE7052E00D30426E662666459
:1042C000201D00F0C6FC04F1180000F0C2FC2461BF
:1042D000C6F10500A061646249464046039A00F0B9
:1042E000C7FA2060BBF1000F01D0CBF80040BDE859
:1042F000FF9F000010B5002407E004EB84010F4A83
:1043000002EB810000F098FC641C052CF5D30C48EE
:1043100000F092FC0B4800F08FFC0B4800F08CFC86
:104320000A4800F089FC0A4800F086FC0448094964
:10433000086004480849086010BD0000F01400201F
:1043400054150020681500207C15002090150020D1
:10435000A4150020F8020020FC0200202DE9F04105
:1043600004460D4616461F464FF00008656024615E
:10437000B5420CD8F01BA169884202D34FF0010866
:1043800011E0211D0948006800F066FC0BE0BE4208
:1043900004D2BD4202D34FF0010804E0211D0448BD
:1043A000006800F059FC4046BDE8F0813803002069
:1043B0003403002070B5054600F068FCA86B08B90E
:1043C000012400E0002400F08BFC204670BD70B595
:1043D000054600F05BFCA86BE96B884201D1012423
:1043E00000E0002400F07CFC204670BD70B505465E
:1043F0000E460E480068C068C468201D00F0F0FB3F
:1044000094F8240000F0040028B1324629462046E2
:1044100000F0DAF805E094F8240000F0FE0084F8DB
:1044200024002046216A884770BD00003403002024
:104430007FB500200190029003907FE00198002852
:104440007CDB039C606908B9012000E0002010B902
:10445000201D00F0C5FB684600F0E2F80546019813
:104460000A2869D2DFE800F06805072E36580608EA
:104470002F3700BF00BF00BF94F8240040F00100B8
:1044800084F824000298A269811803462A4620462F
:10449000FFF764FFA8B194F8240000F0040038B1DD
:1044A0000298A26981182A46204600F08DF805E09E
:1044B00094F8240000F0FE0084F824002046216ACD
:1044C00088473AE000BF94F8240000F0FE0084F82A
:1044D000240032E000BF94F8240040F0010084F88A
:1044E00024000298A061A06908B1012000E000202A
:1044F00050B900BF502080F31188BFF34F8FBFF336
:104500006F8F00BF00BFFEE7A06941192B462A4606
:104510002046FFF723FF10E094F8240000F002008B
:1045200018B9204600F0FAFB05E094F8240000F0EA
:10453000FE0084F8240000E000BF00BF002201A9B3
:104540000348006801F088FA00287FF477AF7FBD48
:104550003C030020F8B505460C4600F09BFF68467A
:1045600000F05EF80646009820BB44B9B54206D874
:1045700002F03CF831462846FFF738FF1CE03CB11A
:104580000E480068006808B9012000E000200446D9
:10459000A91B22460A48006800F058FC02F026F8E1
:1045A00050B94FF0805007490860BFF34F8FBFF3F9
:1045B0006F8F01E002F01AF8F8BD00003803002008
:1045C0003C03002004ED00E070B504460D4616469D
:1045D00004E0A06905442046216A8847A069411982
:1045E0002B4632462046FFF7B9FE0028F1D170BDB8
:1045F00009480068006808B9012000E0002020B1E7
:104600004FF0FF300549086005E003480068C068C6
:104610000068024908607047F80200202403002067
:1046200070B5044601F086FD0546074800688542DE
:1046300004D200F00BF80120206001E0002020608F
:1046400001480560284670BD4403002070B508E0AD
:104650000D480068C06804684FF0FF312046FFF73E
:10466000C5FE09480068006808B9012000E0002084
:104670000028EDD004480568044800680249086035
:104680000248056070BD000034030020380300209C
:104690000E480068401C08B9012000E0002050B915
:1046A00000BF502080F31188BFF34F8FBFF36F8F8F
:1046B00000BF00BFFEE700BF502080F31188BFF3AA
:1046C0004F8FBFF36F8F00BF00BFFEE7E8020020EF
:1046D00008B500BF6846FFF745FD0446204600992F
:1046E000FFF738FFFFF7A4FEF4E770B5044600F0CB
:1046F000CDFA94F9455010E0606A08B9012000E055
:10470000002038B904F1240001F0D6FE18B100F001
:104710008FFD00E003E0681E45B2002DECDC00BF19
:10472000FF2084F8450000F0DBFA00F0AFFA94F9BE
:10473000445010E0206908B9012000E0002048B989
:1047400004F1100001F0B8FE08B100F071FD681E20
:1047500045B200E001E0002DECDC00BFFF2084F852
:10476000440000F0BDFA70BD2DE9F04704464FF05B
:104770000009DCB114F1090F01D9012000E000208B
:1047800098B9083404F0070080B104F00700C0F1C4
:104790000808C8F1FF30A04201D2012000E000204B
:1047A00008B9444402E0002400E0002400F072FE56
:1047B0002648006820B9FFF7E9FC0120234908607A
:1047C000012000EBE47000283AD0002C38D02048BB
:1047D0000068844234D81F4F3846056801E02F46F0
:1047E0002D686868A04202D228680028F7D11A48CC
:1047F000854225D0386800F1080928683860686863
:10480000001B102810D92E196868001B70606C609E
:104810007168104800E00068026852688A42FAD362
:1048200002683260066000BF094968680968081AB2
:1048300007490860686840F0004068600020286010
:1048400001F0D4FE4846BDE8F0870000E4020020F5
:10485000E0020020D0020020D802002003490868AE
:1048600010B1816C491C816470470000F402002083
:10487000001F4FF080730360001F21F001030360ED
:10488000001F034B0360143802602038704700009B
:104890009146000800204FF0E02108616FF07F4052
:1048A0004861002088610520086170472DE9F047C4
:1048B00081468A4616461F4651464846FFF778F815
:1048C000044651464846FFF79FF880465146484601
:1048D000FFF72BF80546208C691E8A0001219140C4
:1048E000084000284AD1B8F1010F06D12F4880694D
:1048F00040F400602D49886108E02C48C069A8F1A7
:10490000020101228A4010432849C8610223002283
:1049100051464846FFF79EF840F2CF202085012DF2
:1049200006D0022D09D0032D0CD0042D14D10EE099
:10493000208B40F0010020830EE0208B40F480703B
:10494000208309E0A08B40F00100A08304E0A08B4D
:1049500040F48070A08300BF00BF208C691E8A00D5
:104960000121914008432084B4F8440040F4004001
:10497000A4F84400208840F0010020804FB1218C31
:10498000681E012202EB8002012090400143218435
:1049900008E0218C681E012202EB80020120904079
:1049A00081432184701EA085BDE8F087001002407D
:1049B0002DE9F04105460E4631462846FEF7F8FF40
:1049C00003460024002731462846FEF7AEFF804606
:1049D000B8F1010F09D0B8F1020F08D0B8F1030FF8
:1049E00007D0B8F1040F09D105E09C8E06E01C8FBA
:1049F00004E09C8F02E0B3F8404000BF00BF1F8D71
:104A0000781C60434821B0FBF1F42046BDE8F081FA
:104A10002DE9F04781468A4617461D4651464846CD
:104A2000FEF7C6FF044651464846FEF7EDFF8046B6
:104A300051464846FEF779FF0646208C711E8A00D3
:104A400001219140084000284AD1B8F1010F06D158
:104A50002F48806940F400602D49886108E02C48A7
:104A6000C069A8F1020101228A4010432849C861A7
:104A70000223032251464846FEF7ECFF40F2CF20C6
:104A80002085012E06D0022E09D0032E0CD0042E34
:104A900014D10EE0208B40F0600020830EE0208BCC
:104AA00040F4C040208309E0A08B40F06000A08368
:104AB00004E0A08B40F4C040A08300BF00BF208C66
:104AC000711E8A000121914008432084B4F84400FB
:104AD00040F40040A4F84400208840F00100208009
:104AE000781EA085012E06D0022E06D0032E06D0F9
:104AF000042E09D105E0A58606E0258704E0A587F8
:104B000002E0A4F8405000BF00BFBDE8F0870000FD
:104B1000001002402DE9F0470446884616464FF043
:104B200000090CB9012000E0002050B900BF50205E
:104B300080F31188BFF34F8FBFF36F8F00BF00BFAB
:104B4000FEE700F0A7FC00F0A1F8234800684C3015
:104B500050F8240030B901211F4800685030015539
:104B600006B1894600F0BCF8B9F1010F03D101216B
:104B70003046FFF77DF801F039FD0746B9F1010F26
:104B800008D13FB94FF0805014490860BFF34F8FF0
:104B9000BFF36F8F00F07AF80F4800684C3050F880
:104BA00024507DB1B8F1000F06D000210A480068FA
:104BB0004C3040F8241005E0681E074909684C3164
:104BC00041F824000021044800685030015500F0ED
:104BD00087F82846BDE8F087F402002004ED00E0E5
:104BE00001460A69D1E901309860D1E901035860B2
:104BF0005068884201D188685060002008611068C0
:104C0000401E106010687047034B0360034B0B603D
:104C10008023136070470000B81500200C16002098
:104C2000034B0360034B0B6080231360704700004D
:104C30000C1800206018002000F1080141604FF0BE
:104C4000FF31816000F10801C16001610021016054
:104C5000704700210161704710B502460B685C1C6B
:104C60000CB9106907E002F1080000E040684468F0
:104C700024689C42FAD944684C604C68A160886002
:104C800041600A611468641C146010BD00BF5020AC
:104C900080F31188BFF34F8FBFF36F8F00BF0E48B3
:104CA0000068401C0C49086008460068012812D1C1
:104CB0000A480068C0B208B9012000E0002050B9DD
:104CC00000BF502080F31188BFF34F8FBFF36F8F69
:104CD00000BF00BFFEE77047E802002004ED00E0DF
:104CE0000D48006850B900BF502080F31188BFF311
:104CF0004F8FBFF36F8F00BF00BFFEE7064800680D
:104D0000401E054908600846006820B9002080F36D
:104D1000118800BF00BF7047E802002070B506464A
:104D20003546002E45D0083D2C466068C00F50B96E
:104D300000BF502080F31188BFF34F8FBFF36F8FF8
:104D400000BF00BFFEE7206808B9012000E0002096
:104D500050B900BF502080F31188BFF34F8FBFF3CD
:104D60006F8F00BF00BFFEE76068C00F08B3206808
:104D7000F8B9606820F0004060606068A0F1080148
:104D800005F10800FBF7C3FC00F084FB61680948EB
:104D900000E00068026852688A42FAD30268226022
:104DA000046005496068096808440349086001F027
:104DB0001DFC70BDD0020020E002002000204FF05A
:104DC000E021086188610248486107200861704756
:104DD0003F0D030070B5FBF755FA0446102C16D3AF
:104DE00004F1E02090F8F05315480078854201DB8B
:104DF000012000E0002050B900BF502080F311884E
:104E0000BFF34F8FBFF36F8F00BF00BFFEE70D48AA
:104E1000006800F4E0600C490968884201D801206C
:104E200000E0002050B900BF502080F31188BFF38C
:104E30004F8FBFF36F8F00BF00BFFEE770BD000054
:104E4000EC0200200CED00E0F00200202DE9F04122
:104E500005460E4617462C46FFF718FF94F9440006
:104E6000401C10B9002084F8440094F94500401C0F
:104E700010B9002084F84500FFF732FFA06B28B975
:104E80003A46314604F1240000F0F4F92046FFF7D9
:104E90002CFCBDE8F08100000EB5002000900190D0
:104EA00002901AE04FF0FF3201210020FFF732FE9E
:104EB00000210A48006800F083FE01280DD1084A4D
:104EC00007CA8DE8070000231A4619460348006800
:104ED00000F0EEFC6846FDF761FCE3E70800002007
:104EE0005003002070B504460025D4B100F0D2FA7A
:104EF00011480068012800D100E0002050B900BF2F
:104F0000502080F31188BFF34F8FBFF36F8F00BF26
:104F100000BFFEE700212046FEF7AAFE01F066FB77
:104F200005463DB94FF0805004490860BFF34F8FEC
:104F3000BFF36F8F70BD00003003002004ED00E070
:104F40002DE9F04705460E46904655B900BF502062
:104F500080F31188BFF34F8FBFF36F8F00BF00BF87
:104F6000FEE70EB9012000E0002050B900BF50203C
:104F700080F31188BFF34F8FBFF36F8F00BF00BF67
:104F8000FEE7FFF727FF2C4600BF5021EFF311800B
:104F900081F31188BFF34F8FBFF36F8F00BF0746B8
:104FA00004F1500010F8069002218155001F50F8BE
:104FB0002600401C04F14C0141F82600B9F1010F14
:104FC00079D1A06A08B9012000E0002050B900BFE3
:104FD000502080F31188BFF34F8FBFF36F8F00BF56
:104FE00000BFFEE737480068002843D100BF606972
:104FF000D4E902128A60D4E902214A60211D426884
:105000008A4201D1E1684160002262610168491E63
:10501000016000BF00BF00BF2B49E06A09688842F9
:1050200002D92949E06A086000BF00BFE16A01EBCC
:105030008101264A02EB81014868A0608268E26033
:10504000211D826851608160E16A01EB81011F4A84
:1050500002EB81026261E16A01EB81011B4A52F8B5
:105060002110491CE26A02EB8202184B43F822101D
:1050700000BF11E000BF16494868E0618268226203
:1050800004F11801826851608160114AA2621146E0
:105090000968491C116000BF0E49E06A0968C96AC5
:1050A000884208D9B8F1000F02D00120C8F80000EA
:1050B00001200949086000BF87F3118800BFBDE8DF
:1050C000F0870000300300200C030020F0140020C3
:1050D0007C150020F4020020180300200349096811
:1050E0000160034909684160704700001C0300200B
:1050F000080300208EB004462546142109A8FBF7BA
:1051000028FB142104A8FBF724FB01F013F80390FB
:105110004EE02848407C412814D1012026490870DF
:1051200026492448FDF7F0FD2448416C006CCDE988
:1051300000012249D1E90863324621A12846FBF744
:10514000C5F82EE0FDF7AEFA30280FD101201A493C
:10515000087014231A4604A909A8FDF7C3FA04AB82
:1051600009AA22A12846FBF7B1F81AE0FDF70AFDCB
:1051700030280FD101201049087014231A4604A9C1
:1051800009A8FDF745FD04AB09AA18A12846FBF7BD
:105190009DF806E00020084908701EA12846FBF78C
:1051A0004DFA00BF4FF4FA7103A800F057FE00BF9C
:1051B000AFE7000040040020070000209803002013
:1051C00068747470733A2F2F7777772E676F6F67D5
:1051D0006C652E636F6D2F6D6170733F713D252E71
:1051E000366C662C252E366C660D0A006874747059
:1051F000733A2F2F7777772E676F6F676C652E6303
:105200006F6D2F6D6170733F713D25732C25730D8C
:105210000A00000043616E7420676574206C6F6340
:105220006174696F6E20646174610D0A0000000092
:1052300001200149086070471803002070B504463A
:105240000D4654B900BF502080F31188BFF34F8F33
:10525000BFF36F8F00BF00BFFEE70548016818313C
:105260002046FFF7F9FC01212846FEF701FD70BD3D
:10527000F402002070B504460E46154654B900BF2E
:10528000502080F31188BFF34F8FBFF36F8F00BFA3
:1052900000BFFEE700BF60680F490968C8610E499A
:1052A000826809680A620C4909681831826851608D
:1052B0000949096818318160074909688C622168C9
:1052C000491C216000BF0DB14FF0FF362946304622
:1052D000FEF7CEFC70BD0000F40200202DE9F0477F
:1052E00006460F4634464FF00109002E74D0A06CDC
:1052F00050B900BF502080F31188BFF34F8FBFF328
:105300006F8F00BF00BFFEE7606CB84201D23D4620
:1053100000E0656CE06AA8425ED0A06C01285BD119
:105320002E480068844201D0012000E0002050B9DE
:1053300000BF502080F31188BFF34F8FBFF36F8FF2
:1053400000BF00BFFEE7D4F82C80E562A06900F042
:10535000004010B9C5F10500A06108EB8801204AA2
:1053600002EB81016069884201D1012000E0002048
:1053700090B3201DFFF734FC00BF00BF1949E06A5D
:105380000968884202D91749E06A086000BF00BF77
:10539000E16A01EB8101124A02EB81014868A060D9
:1053A0008268E260211D826851608160E16A01EBE0
:1053B00081010B4A02EB81026261E16A01EB81012A
:1053C000074A52F82110491CE26A02EB8202044BA0
:1053D00043F8221000BF00BFBDE8F087F4020020B0
:1053E000F01400200C03002012E04FF0FF320121E6
:1053F0000020FFF78FFB07480078012805D1FDF753
:10540000A7F90B20FDF7E4FA02E00C20FDF7E0FA23
:10541000EBE700000700002010B5FEF7A1FD0446F1
:10542000012C02D101F0B4F90446012C15D100BFC2
:10543000502080F31188BFF34F8FBFF36F8F00BFF1
:105440004FF0FF300F49086001200F49086000202D
:105450000E49086000F0AEF810E0601C08B10120B1
:1054600000E0002050B900BF502080F31188BFF346
:105470004F8FBFF36F8F00BF00BFFEE70448006887
:1054800010BD0000240300201003002008030020AA
:105490002C03002002480068401C01490860704746
:1054A000300300202048006818B101201F4908601F
:1054B00038E000201D49086000BF1D4801680CE06D
:1054C00051B900BF502080F31188BFF34F8FBFF355
:1054D0006F8F00BF00BFFEE7491E01EB8100154A38
:1054E00052F8200008B9012000E000200028E7D190
:1054F00000BF01EB81020F4B03EB82004268526850
:10550000426000F108024368934201D1C2684260E0
:105510004268D268084B1A6000BF0548016000BFAE
:105520001846006870470000300300201803002070
:105530000C030020F0140020F40200201CB500F041
:10554000F9FD01902CE01748007818BB4FF0FF31AF
:105550001548006800F034FB01281BD11348FEF702
:10556000C5F800231A4619460F48006800F0A0F954
:105570000E48006828B90D48406810B90B4880688B
:1055800040B100200223024601460090084800680E
:1055900000F0D0FC00BF322101A800F05FFC00BF8A
:1055A000D1E7000006000020080000205003002082
:1055B0000C0000200EB50020019037490846007805
:1055C0000290FF200A4610700846007800909DF86F
:1055D000000000F05000314A10701046007850B9B9
:1055E00000BF502080F31188BFF34F8FBFF36F8F40
:1055F00000BF00BFFEE79DF800205020904308B98F
:10560000012000E0002050B900BF502080F3118835
:10561000BFF34F8FBFF36F8F00BF00BFFEE707E000
:105620000198401C01909DF800004006000E00907B
:105630009DF8000000F080008028F1D00198082833
:1056400003D10020164A106004E00198C0F1070061
:10565000134A1060124800680002114A1060104698
:10566000008800F4E06010609DF808000A4A10709D
:105670000C48006840F47F000A490860084600684A
:1056800040F07F400860FFF799FB00200649086062
:10569000FAF7C2FD00200EBD00E400E0EC0200209D
:1056A000F002002020ED00E0E80200202DE9F041AA
:1056B00004460126002722460021012000F007F8B9
:1056C00005462846FEF792FD2846BDE8F0812DE903
:1056D000F84305460E4617460024FDB1601EB0FB98
:1056E000F5F0B0421AD305FB06F010F1490F15D8BA
:1056F00005FB06F808F14800FFF736F80446CCB180
:10570000A14609F14809002084F846003B464A4674
:10571000314628460094FEF778FD0BE054B900BFEF
:10572000502080F31188BFF34F8FBFF36F8F00BFFE
:1057300000BFFEE72046BDE8F8832DE9F843804628
:105740000E4617461C46DDF82090002554B900BFD0
:10575000502080F31188BFF34F8FBFF36F8F00BFCE
:1057600000BFFEE7B8F1000F25D024B307B116B390
:1057700007B906BB482000900098482801D10120B5
:1057800000E0002050B900BF502080F31188BFF323
:105790004F8FBFF36F8F00BF00BFFEE700BF2546EE
:1057A000012085F846004B463A4631464046009572
:1057B000FEF72BFD0BE055B900BF502080F3118898
:1057C000BFF34F8FBFF36F8F00BF00BFFEE72846C8
:1057D000BDE8F8832DE9F04105460E4601272C4629
:1057E00054B900BF502080F31188BFF34F8FBFF32F
:1057F0006F8F00BF00BFFEE7002C42D0E06B002897
:105800003FD04FF0FF31E06BB1FBF0F0216C8842EC
:1058100037D3FFF73BFAD4E90F12206801FB0200EF
:10582000A0600020A06320686060E06B401E226CD6
:10583000216800FB0211E160FF2084F8440084F835
:1058400045009EB9206908B9012000E00020A8B9F0
:1058500004F1100000F030FE80B14FF08050134989
:105860000860BFF34F8FBFF36F8F07E004F11000A4
:10587000FFF7E2F904F12400FFF7DEF9FFF730FA51
:1058800000E000270FB1012000E0002050B900BF68
:10589000502080F31188BFF34F8FBFF36F8F00BF8D
:1058A00000BFFEE73846BDE8F081000004ED00E0EF
:1058B0002DE9FF4383B0064688461D464FF0000998
:1058C000344654B900BF502080F31188BFF34F8F86
:1058D000BFF36F8F00BF00BFFEE7B8F1000F01D12B
:1058E000206C08B9012000E0002050B900BF502012
:1058F00080F31188BFF34F8FBFF36F8F00BF00BFDE
:10590000FEE7022D02D1E06B012801D1012000E069
:10591000002050B900BF502080F31188BFF34F8F93
:10592000BFF36F8F00BF00BFFEE700F0F3FB08B9C5
:10593000059808B9012000E0002050B900BF5020B0
:1059400080F31188BFF34F8FBFF36F8F00BF00BF8D
:10595000FEE700BFFFF79AF9A06BE16B884201D325
:10596000022D28D12A4641462046FEF7BAFA0746BC
:10597000606A08B9012000E0002068B904F1240041
:1059800000F09AFD88B14FF0805032490860BFF3B3
:105990004F8FBFF36F8F08E03FB14FF080502D491C
:1059A0000860BFF34F8FBFF36F8FFFF799F90120A6
:1059B00007B0BDE8F083059818B9FFF791F900200A
:1059C000F6E7B9F1000F04D101A8FFF787FB4FF00C
:1059D0000109FFF785F9FFF75DFDFFF757F994F926
:1059E0004400401C10B9002084F8440094F945009C
:1059F000401C10B9002084F84500FFF771F905A993
:105A000001A800F0A7F9F0B92046FEF7E0FCA0B12C
:105A100004F110000599FFF711FC2046FEF765FE22
:105A200000F0E4FD002895D14FF08050094908604E
:105A3000BFF34F8FBFF36F8F8CE72046FEF755FE05
:105A400000F0D4FD86E72046FEF74FFE00F0CEFDC5
:105A50000020ADE704ED00E02DE9F74183B00546F5
:105A60000E464FF000082C4654B900BF502080F37A
:105A70001188BFF34F8FBFF36F8F00BF00BFFEE7EA
:105A80000EB9206C08B9012000E0002050B900BF19
:105A9000502080F31188BFF34F8FBFF36F8F00BF8B
:105AA00000BFFEE700F036FB08B9059808B90120F1
:105AB00000E0002050B900BF502080F31188BFF3F0
:105AC0004F8FBFF36F8F00BF00BFFEE700BFFFF730
:105AD000DDF8A76BF7B131462046FEF7EDF9781EE9
